{
  "_format": "hh-sol-artifact-1",
  "contractName": "siva",
  "sourceName": "contracts/Assessment.sol",
  "abi": [
    {
      "inputs": [],
      "stateMutability": "nonpayable",
      "type": "constructor"
    },
    {
      "inputs": [],
      "name": "connectAccount",
      "outputs": [],
      "stateMutability": "nonpayable",
      "type": "function"
    },
    {
      "inputs": [],
      "name": "disconnectAccount",
      "outputs": [],
      "stateMutability": "nonpayable",
      "type": "function"
    },
    {
      "inputs": [],
      "name": "getNetworkName",
      "outputs": [
        {
          "internalType": "string",
          "name": "",
          "type": "string"
        }
      ],
      "stateMutability": "view",
      "type": "function"
    },
    {
      "inputs": [],
      "name": "getNumConnectedAccounts",
      "outputs": [
        {
          "internalType": "uint256",
          "name": "",
          "type": "uint256"
        }
      ],
      "stateMutability": "view",
      "type": "function"
    },
    {
      "inputs": [],
      "name": "getOwnerAddress",
      "outputs": [
        {
          "internalType": "address",
          "name": "",
          "type": "address"
        }
      ],
      "stateMutability": "view",
      "type": "function"
    },
    {
      "inputs": [],
      "name": "numAccounts",
      "outputs": [
        {
          "internalType": "uint256",
          "name": "",
          "type": "uint256"
        }
      ],
      "stateMutability": "view",
      "type": "function"
    },
    {
      "inputs": [],
      "name": "owner",
      "outputs": [
        {
          "internalType": "address",
          "name": "",
          "type": "address"
        }
      ],
      "stateMutability": "view",
      "type": "function"
    }
  ],
  "bytecode": "0x608060405234801561001057600080fd5b50336000806101000a81548173ffffffffffffffffffffffffffffffffffffffff021916908373ffffffffffffffffffffffffffffffffffffffff1602179055506000600181905550610637806100686000396000f3fe608060405234801561001057600080fd5b506004361061007d5760003560e01c80638da5cb5b1161005b5780638da5cb5b146100c857806394074b03146100e65780639938c34914610104578063f57e2a6c146101225761007d565b80630c4f65bd146100825780636245d5e6146100a05780638ce25a93146100aa575b600080fd5b61008a61012c565b60405161009791906103f4565b60405180910390f35b6100a8610155565b005b6100b26101b4565b6040516100bf9190610428565b60405180910390f35b6100d06101ba565b6040516100dd91906103f4565b60405180910390f35b6100ee6101de565b6040516100fb91906104d3565b60405180910390f35b61010c6101ed565b6040516101199190610428565b60405180910390f35b61012a6101f7565b005b60008060009054906101000a900473ffffffffffffffffffffffffffffffffffffffff16905090565b60006001541161019a576040517f08c379a000000000000000000000000000000000000000000000000000000000815260040161019190610541565b60405180910390fd5b600160008154809291906101ad90610590565b9190505550565b60015481565b60008054906101000a900473ffffffffffffffffffffffffffffffffffffffff1681565b60606101e8610211565b905090565b6000600154905090565b6001600081548092919061020a906105b9565b9190505550565b606060004690506001810361025e576040518060400160405280600781526020017f4d61696e6e6574000000000000000000000000000000000000000000000000008152509150506103b0565b600381036102a4576040518060400160405280600781526020017f526f707374656e000000000000000000000000000000000000000000000000008152509150506103b0565b600481036102ea576040518060400160405280600781526020017f52696e6b656279000000000000000000000000000000000000000000000000008152509150506103b0565b60058103610330576040518060400160405280600681526020017f476f65726c6900000000000000000000000000000000000000000000000000008152509150506103b0565b602a8103610376576040518060400160405280600581526020017f4b6f76616e0000000000000000000000000000000000000000000000000000008152509150506103b0565b6040518060400160405280600781526020017f556e6b6e6f776e000000000000000000000000000000000000000000000000008152509150505b90565b600073ffffffffffffffffffffffffffffffffffffffff82169050919050565b60006103de826103b3565b9050919050565b6103ee816103d3565b82525050565b600060208201905061040960008301846103e5565b92915050565b6000819050919050565b6104228161040f565b82525050565b600060208201905061043d6000830184610419565b92915050565b600081519050919050565b600082825260208201905092915050565b60005b8381101561047d578082015181840152602081019050610462565b60008484015250505050565b6000601f19601f8301169050919050565b60006104a582610443565b6104af818561044e565b93506104bf81856020860161045f565b6104c881610489565b840191505092915050565b600060208201905081810360008301526104ed818461049a565b905092915050565b7f4e6f206163636f756e747320746f20646973636f6e6e65637400000000000000600082015250565b600061052b60198361044e565b9150610536826104f5565b602082019050919050565b6000602082019050818103600083015261055a8161051e565b9050919050565b7f4e487b7100000000000000000000000000000000000000000000000000000000600052601160045260246000fd5b600061059b8261040f565b9150600082036105ae576105ad610561565b5b600182039050919050565b60006105c48261040f565b91507fffffffffffffffffffffffffffffffffffffffffffffffffffffffffffffffff82036105f6576105f5610561565b5b60018201905091905056fea26469706673582212209b11e2980c4b2cf85a17f3fdc06b3ab43543a4f4102697a90325b82b2aabf76d64736f6c63430008110033",
  "linkReferences": {},
  "deployedLinkReferences": {}
}